{
  "contractName": "UserManagement",
  "abi": [
    {
      "inputs": [],
      "stateMutability": "nonpayable",
      "type": "constructor"
    },
    {
      "anonymous": false,
      "inputs": [
        {
          "indexed": false,
          "internalType": "address",
          "name": "owner",
          "type": "address"
        },
        {
          "indexed": false,
          "internalType": "address",
          "name": "authorizedUser",
          "type": "address"
        }
      ],
      "name": "AuthorizationGranted",
      "type": "event"
    },
    {
      "anonymous": false,
      "inputs": [
        {
          "indexed": false,
          "internalType": "address",
          "name": "owner",
          "type": "address"
        },
        {
          "indexed": false,
          "internalType": "address",
          "name": "unauthorizedUser",
          "type": "address"
        }
      ],
      "name": "AuthorizationRevoked",
      "type": "event"
    },
    {
      "anonymous": false,
      "inputs": [
        {
          "indexed": false,
          "internalType": "address",
          "name": "userAddress",
          "type": "address"
        },
        {
          "indexed": false,
          "internalType": "string",
          "name": "name",
          "type": "string"
        },
        {
          "indexed": false,
          "internalType": "enum UserManagement.Role",
          "name": "role",
          "type": "uint8"
        }
      ],
      "name": "UserRegistered",
      "type": "event"
    },
    {
      "inputs": [],
      "name": "owner",
      "outputs": [
        {
          "internalType": "address",
          "name": "",
          "type": "address"
        }
      ],
      "stateMutability": "view",
      "type": "function"
    },
    {
      "inputs": [
        {
          "internalType": "address",
          "name": "",
          "type": "address"
        }
      ],
      "name": "users",
      "outputs": [
        {
          "internalType": "string",
          "name": "name",
          "type": "string"
        },
        {
          "internalType": "enum UserManagement.Role",
          "name": "role",
          "type": "uint8"
        },
        {
          "internalType": "bool",
          "name": "isActive",
          "type": "bool"
        }
      ],
      "stateMutability": "view",
      "type": "function"
    },
    {
      "inputs": [
        {
          "internalType": "address",
          "name": "_userAddress",
          "type": "address"
        },
        {
          "internalType": "string",
          "name": "_name",
          "type": "string"
        },
        {
          "internalType": "enum UserManagement.Role",
          "name": "_role",
          "type": "uint8"
        }
      ],
      "name": "registerUser",
      "outputs": [],
      "stateMutability": "nonpayable",
      "type": "function"
    },
    {
      "inputs": [
        {
          "internalType": "address",
          "name": "_owner",
          "type": "address"
        },
        {
          "internalType": "address",
          "name": "_authorizedUser",
          "type": "address"
        }
      ],
      "name": "grantAuthorization",
      "outputs": [],
      "stateMutability": "nonpayable",
      "type": "function"
    },
    {
      "inputs": [
        {
          "internalType": "address",
          "name": "_owner",
          "type": "address"
        },
        {
          "internalType": "address",
          "name": "_unauthorizedUser",
          "type": "address"
        }
      ],
      "name": "revokeAuthorization",
      "outputs": [],
      "stateMutability": "nonpayable",
      "type": "function"
    }
  ],
  "bytecode": "0x608060405234801561001057600080fd5b50336000806101000a81548173ffffffffffffffffffffffffffffffffffffffff021916908373ffffffffffffffffffffffffffffffffffffffff160217905550611367806100606000396000f3fe608060405234801561001057600080fd5b50600436106100575760003560e01c8063219f5b921461005c57806381efad24146100785780638da5cb5b14610094578063a87430ba146100b2578063b708e1ce146100e4575b600080fd5b61007660048036038101906100719190610974565b610100565b005b610092600480360381019061008d9190610b1f565b610382565b005b61009c610538565b6040516100a99190610b9d565b60405180910390f35b6100cc60048036038101906100c79190610bb8565b61055c565b6040516100db93929190610cf6565b60405180910390f35b6100fe60048036038101906100f99190610974565b610628565b005b60008054906101000a900473ffffffffffffffffffffffffffffffffffffffff1673ffffffffffffffffffffffffffffffffffffffff163373ffffffffffffffffffffffffffffffffffffffff161461018e576040517f08c379a000000000000000000000000000000000000000000000000000000000815260040161018590610da6565b60405180910390fd5b610197826108a9565b6101d6576040517f08c379a00000000000000000000000000000000000000000000000000000000081526004016101cd90610e12565b60405180910390fd5b6101df816108a9565b61021e576040517f08c379a000000000000000000000000000000000000000000000000000000000815260040161021590610e7e565b60405180910390fd5b600160008373ffffffffffffffffffffffffffffffffffffffff1673ffffffffffffffffffffffffffffffffffffffff16815260200190815260200160002060010160019054906101000a900460ff166102ad576040517f08c379a00000000000000000000000000000000000000000000000000000000081526004016102a490610eea565b60405180910390fd5b6000600160008473ffffffffffffffffffffffffffffffffffffffff1673ffffffffffffffffffffffffffffffffffffffff16815260200190815260200160002060020160008373ffffffffffffffffffffffffffffffffffffffff1673ffffffffffffffffffffffffffffffffffffffff16815260200190815260200160002060006101000a81548160ff0219169083151502179055507f203a04209f1ae06508132ac82e6ad3b28d9e9ba11f97cc9934b4d9e6a83dd24e8282604051610376929190610f0a565b60405180910390a15050565b60008054906101000a900473ffffffffffffffffffffffffffffffffffffffff1673ffffffffffffffffffffffffffffffffffffffff163373ffffffffffffffffffffffffffffffffffffffff1614610410576040517f08c379a000000000000000000000000000000000000000000000000000000000815260040161040790610da6565b60405180910390fd5b610419836108a9565b15610459576040517f08c379a000000000000000000000000000000000000000000000000000000000815260040161045090610f7f565b60405180910390fd5b6000600160008573ffffffffffffffffffffffffffffffffffffffff1673ffffffffffffffffffffffffffffffffffffffff1681526020019081526020016000209050828160000190816104ad91906111b5565b50818160010160006101000a81548160ff021916908360048111156104d5576104d4610c64565b5b021790555060018160010160016101000a81548160ff0219169083151502179055507fc2e5d5da58bd71d1a2d14cdef02a4256d971b728088f8190d067ccfbae3bd73e84848460405161052a93929190611287565b60405180910390a150505050565b60008054906101000a900473ffffffffffffffffffffffffffffffffffffffff1681565b600160205280600052604060002060009150905080600001805461057f90610fce565b80601f01602080910402602001604051908101604052809291908181526020018280546105ab90610fce565b80156105f85780601f106105cd576101008083540402835291602001916105f8565b820191906000526020600020905b8154815290600101906020018083116105db57829003601f168201915b5050505050908060010160009054906101000a900460ff16908060010160019054906101000a900460ff16905083565b60008054906101000a900473ffffffffffffffffffffffffffffffffffffffff1673ffffffffffffffffffffffffffffffffffffffff163373ffffffffffffffffffffffffffffffffffffffff16146106b6576040517f08c379a00000000000000000000000000000000000000000000000000000000081526004016106ad90610da6565b60405180910390fd5b6106bf826108a9565b6106fe576040517f08c379a00000000000000000000000000000000000000000000000000000000081526004016106f590610e12565b60405180910390fd5b610707816108a9565b610746576040517f08c379a000000000000000000000000000000000000000000000000000000000815260040161073d90611311565b60405180910390fd5b600160008373ffffffffffffffffffffffffffffffffffffffff1673ffffffffffffffffffffffffffffffffffffffff16815260200190815260200160002060010160019054906101000a900460ff166107d5576040517f08c379a00000000000000000000000000000000000000000000000000000000081526004016107cc90610eea565b60405180910390fd5b60018060008473ffffffffffffffffffffffffffffffffffffffff1673ffffffffffffffffffffffffffffffffffffffff16815260200190815260200160002060020160008373ffffffffffffffffffffffffffffffffffffffff1673ffffffffffffffffffffffffffffffffffffffff16815260200190815260200160002060006101000a81548160ff0219169083151502179055507f7221372411f0405c58b7b48e3951c448bb594dad75f79bf6aefa69af430d6062828260405161089d929190610f0a565b60405180910390a15050565b6000600160008373ffffffffffffffffffffffffffffffffffffffff1673ffffffffffffffffffffffffffffffffffffffff16815260200190815260200160002060010160019054906101000a900460ff169050919050565b6000604051905090565b600080fd5b600080fd5b600073ffffffffffffffffffffffffffffffffffffffff82169050919050565b600061094182610916565b9050919050565b61095181610936565b811461095c57600080fd5b50565b60008135905061096e81610948565b92915050565b6000806040838503121561098b5761098a61090c565b5b60006109998582860161095f565b92505060206109aa8582860161095f565b9150509250929050565b600080fd5b600080fd5b6000601f19601f8301169050919050565b7f4e487b7100000000000000000000000000000000000000000000000000000000600052604160045260246000fd5b610a07826109be565b810181811067ffffffffffffffff82111715610a2657610a256109cf565b5b80604052505050565b6000610a39610902565b9050610a4582826109fe565b919050565b600067ffffffffffffffff821115610a6557610a646109cf565b5b610a6e826109be565b9050602081019050919050565b82818337600083830152505050565b6000610a9d610a9884610a4a565b610a2f565b905082815260208101848484011115610ab957610ab86109b9565b5b610ac4848285610a7b565b509392505050565b600082601f830112610ae157610ae06109b4565b5b8135610af1848260208601610a8a565b91505092915050565b60058110610b0757600080fd5b50565b600081359050610b1981610afa565b92915050565b600080600060608486031215610b3857610b3761090c565b5b6000610b468682870161095f565b935050602084013567ffffffffffffffff811115610b6757610b66610911565b5b610b7386828701610acc565b9250506040610b8486828701610b0a565b9150509250925092565b610b9781610936565b82525050565b6000602082019050610bb26000830184610b8e565b92915050565b600060208284031215610bce57610bcd61090c565b5b6000610bdc8482850161095f565b91505092915050565b600081519050919050565b600082825260208201905092915050565b60005b83811015610c1f578082015181840152602081019050610c04565b60008484015250505050565b6000610c3682610be5565b610c408185610bf0565b9350610c50818560208601610c01565b610c59816109be565b840191505092915050565b7f4e487b7100000000000000000000000000000000000000000000000000000000600052602160045260246000fd5b60058110610ca457610ca3610c64565b5b50565b6000819050610cb582610c93565b919050565b6000610cc582610ca7565b9050919050565b610cd581610cba565b82525050565b60008115159050919050565b610cf081610cdb565b82525050565b60006060820190508181036000830152610d108186610c2b565b9050610d1f6020830185610ccc565b610d2c6040830184610ce7565b949350505050565b7f4f6e6c7920636f6e7472616374206f776e65722063616e20706572666f726d2060008201527f74686973206f7065726174696f6e000000000000000000000000000000000000602082015250565b6000610d90602e83610bf0565b9150610d9b82610d34565b604082019050919050565b60006020820190508181036000830152610dbf81610d83565b9050919050565b7f4f776e657220646f6573206e6f74206578697374000000000000000000000000600082015250565b6000610dfc601483610bf0565b9150610e0782610dc6565b602082019050919050565b60006020820190508181036000830152610e2b81610def565b9050919050565b7f556e617574686f72697a6564207573657220646f6573206e6f74206578697374600082015250565b6000610e68602083610bf0565b9150610e7382610e32565b602082019050919050565b60006020820190508181036000830152610e9781610e5b565b9050919050565b7f4f776e6572206163636f756e74206973206e6f74206163746976650000000000600082015250565b6000610ed4601b83610bf0565b9150610edf82610e9e565b602082019050919050565b60006020820190508181036000830152610f0381610ec7565b9050919050565b6000604082019050610f1f6000830185610b8e565b610f2c6020830184610b8e565b9392505050565b7f5573657220616c72656164792072656769737465726564000000000000000000600082015250565b6000610f69601783610bf0565b9150610f7482610f33565b602082019050919050565b60006020820190508181036000830152610f9881610f5c565b9050919050565b7f4e487b7100000000000000000000000000000000000000000000000000000000600052602260045260246000fd5b60006002820490506001821680610fe657607f821691505b602082108103610ff957610ff8610f9f565b5b50919050565b60008190508160005260206000209050919050565b60006020601f8301049050919050565b600082821b905092915050565b6000600883026110617fffffffffffffffffffffffffffffffffffffffffffffffffffffffffffffffff82611024565b61106b8683611024565b95508019841693508086168417925050509392505050565b6000819050919050565b6000819050919050565b60006110b26110ad6110a884611083565b61108d565b611083565b9050919050565b6000819050919050565b6110cc83611097565b6110e06110d8826110b9565b848454611031565b825550505050565b600090565b6110f56110e8565b6111008184846110c3565b505050565b5b81811015611124576111196000826110ed565b600181019050611106565b5050565b601f8211156111695761113a81610fff565b61114384611014565b81016020851015611152578190505b61116661115e85611014565b830182611105565b50505b505050565b600082821c905092915050565b600061118c6000198460080261116e565b1980831691505092915050565b60006111a5838361117b565b9150826002028217905092915050565b6111be82610be5565b67ffffffffffffffff8111156111d7576111d66109cf565b5b6111e18254610fce565b6111ec828285611128565b600060209050601f83116001811461121f576000841561120d578287015190505b6112178582611199565b86555061127f565b601f19841661122d86610fff565b60005b8281101561125557848901518255600182019150602085019450602081019050611230565b86831015611272578489015161126e601f89168261117b565b8355505b6001600288020188555050505b505050505050565b600060608201905061129c6000830186610b8e565b81810360208301526112ae8185610c2b565b90506112bd6040830184610ccc565b949350505050565b7f417574686f72697a6564207573657220646f6573206e6f742065786973740000600082015250565b60006112fb601e83610bf0565b9150611306826112c5565b602082019050919050565b6000602082019050818103600083015261132a816112ee565b905091905056fea2646970667358221220508410e8982f49893132ec7d0389051761704918e87d8414fda1e58c0283b3cd64736f6c63430008130033",
  "immutableReferences": {},
  "source": "// SPDX-License-Identifier: MIT\r\npragma solidity ^0.8.19;\r\ncontract UserManagement {\r\n    address public owner;\r\n    \r\n    enum Role { Unknown, Doctor, Nurse, Pharmacist, Patient }\r\n    \r\n    struct User {\r\n        string name;\r\n        Role role;\r\n        bool isActive;\r\n        mapping(address => bool) authorizedUsers;\r\n    }\r\n    \r\n    mapping(address => User) public users;\r\n    \r\n    event UserRegistered(address userAddress, string name, Role role);\r\n    event AuthorizationGranted(address owner, address authorizedUser);\r\n    event AuthorizationRevoked(address owner, address unauthorizedUser);\r\n    \r\n    modifier onlyOwner() {\r\n        require(msg.sender == owner, \"Only contract owner can perform this operation\");\r\n        _;\r\n    }\r\n    \r\n    constructor() {\r\n        owner = msg.sender;\r\n    }\r\n    \r\n   function registerUser(address _userAddress, string memory _name, Role _role) public onlyOwner {\r\n    require(!userExists(_userAddress), \"User already registered\");\r\n    \r\n    // Crer une nouvelle structure User\r\n    User storage newUser = users[_userAddress];\r\n    newUser.name = _name;\r\n    newUser.role = _role;\r\n    newUser.isActive = true;\r\n\r\n    // Initialiser la mapping authorizedUsers\r\n    // Notez que vous n'avez pas besoin de l'initialiser si vous n'avez pas besoin d'ajouter d'utilisateurs autoriss lors de l'inscription\r\n    // Dans ce cas, vous pouvez supprimer cette tape\r\n    // newUser.authorizedUsers = ...;\r\n\r\n    emit UserRegistered(_userAddress, _name, _role);\r\n}\r\n    function grantAuthorization(address _owner, address _authorizedUser) public onlyOwner {\r\n        require(userExists(_owner), \"Owner does not exist\");\r\n        require(userExists(_authorizedUser), \"Authorized user does not exist\");\r\n        require(users[_owner].isActive, \"Owner account is not active\");\r\n        users[_owner].authorizedUsers[_authorizedUser] = true;\r\n        emit AuthorizationGranted(_owner, _authorizedUser);\r\n    }\r\n    \r\n    function revokeAuthorization(address _owner, address _unauthorizedUser) public onlyOwner {\r\n        require(userExists(_owner), \"Owner does not exist\");\r\n        require(userExists(_unauthorizedUser), \"Unauthorized user does not exist\");\r\n        require(users[_owner].isActive, \"Owner account is not active\");\r\n        users[_owner].authorizedUsers[_unauthorizedUser] = false;\r\n        emit AuthorizationRevoked(_owner, _unauthorizedUser);\r\n    }\r\n    \r\n    function userExists(address _userAddress) private view returns (bool) {\r\n        return users[_userAddress].isActive;\r\n    }\r\n}\r\n",
  "sourcePath": "C:\\Users\\pc\\Desktop\\Truffle_IOT\\Smart_contracts\\contracts\\UserManagement.sol",
  "compiler": {
    "name": "solc",
    "version": "0.8.19+commit.7dd6d404.Emscripten.clang"
  },
  "schemaVersion": "3.4.16",
  "updatedAt": "2024-05-15T08:58:13.756Z",
  "devdoc": {
    "kind": "dev",
    "methods": {},
    "version": 1
  },
  "userdoc": {
    "kind": "user",
    "methods": {},
    "version": 1
  }
}